{
  "address": "0x0165878A594ca255338adfa4d48449f69242Eb8F",
  "abi": [
    {
      "inputs": [
        {
          "internalType": "address",
          "name": "_priceFeed",
          "type": "address"
        },
        {
          "internalType": "string",
          "name": "lowSvg",
          "type": "string"
        },
        {
          "internalType": "string",
          "name": "highSvg",
          "type": "string"
        }
      ],
      "stateMutability": "nonpayable",
      "type": "constructor"
    },
    {
      "inputs": [],
      "name": "DynamicSvgNft__NonExistentTokenId",
      "type": "error"
    },
    {
      "anonymous": false,
      "inputs": [
        {
          "indexed": true,
          "internalType": "address",
          "name": "owner",
          "type": "address"
        },
        {
          "indexed": true,
          "internalType": "address",
          "name": "approved",
          "type": "address"
        },
        {
          "indexed": true,
          "internalType": "uint256",
          "name": "tokenId",
          "type": "uint256"
        }
      ],
      "name": "Approval",
      "type": "event"
    },
    {
      "anonymous": false,
      "inputs": [
        {
          "indexed": true,
          "internalType": "address",
          "name": "owner",
          "type": "address"
        },
        {
          "indexed": true,
          "internalType": "address",
          "name": "operator",
          "type": "address"
        },
        {
          "indexed": false,
          "internalType": "bool",
          "name": "approved",
          "type": "bool"
        }
      ],
      "name": "ApprovalForAll",
      "type": "event"
    },
    {
      "anonymous": false,
      "inputs": [
        {
          "indexed": true,
          "internalType": "uint256",
          "name": "tokenId",
          "type": "uint256"
        },
        {
          "indexed": false,
          "internalType": "int256",
          "name": "highValue",
          "type": "int256"
        }
      ],
      "name": "CreatedNFT",
      "type": "event"
    },
    {
      "anonymous": false,
      "inputs": [
        {
          "indexed": true,
          "internalType": "address",
          "name": "from",
          "type": "address"
        },
        {
          "indexed": true,
          "internalType": "address",
          "name": "to",
          "type": "address"
        },
        {
          "indexed": true,
          "internalType": "uint256",
          "name": "tokenId",
          "type": "uint256"
        }
      ],
      "name": "Transfer",
      "type": "event"
    },
    {
      "inputs": [
        {
          "internalType": "address",
          "name": "to",
          "type": "address"
        },
        {
          "internalType": "uint256",
          "name": "tokenId",
          "type": "uint256"
        }
      ],
      "name": "approve",
      "outputs": [],
      "stateMutability": "nonpayable",
      "type": "function"
    },
    {
      "inputs": [
        {
          "internalType": "address",
          "name": "owner",
          "type": "address"
        }
      ],
      "name": "balanceOf",
      "outputs": [
        {
          "internalType": "uint256",
          "name": "",
          "type": "uint256"
        }
      ],
      "stateMutability": "view",
      "type": "function"
    },
    {
      "inputs": [
        {
          "internalType": "uint256",
          "name": "tokenId",
          "type": "uint256"
        }
      ],
      "name": "getApproved",
      "outputs": [
        {
          "internalType": "address",
          "name": "",
          "type": "address"
        }
      ],
      "stateMutability": "view",
      "type": "function"
    },
    {
      "inputs": [],
      "name": "getTokenCounter",
      "outputs": [
        {
          "internalType": "uint256",
          "name": "",
          "type": "uint256"
        }
      ],
      "stateMutability": "view",
      "type": "function"
    },
    {
      "inputs": [
        {
          "internalType": "address",
          "name": "owner",
          "type": "address"
        },
        {
          "internalType": "address",
          "name": "operator",
          "type": "address"
        }
      ],
      "name": "isApprovedForAll",
      "outputs": [
        {
          "internalType": "bool",
          "name": "",
          "type": "bool"
        }
      ],
      "stateMutability": "view",
      "type": "function"
    },
    {
      "inputs": [
        {
          "internalType": "int256",
          "name": "highValue",
          "type": "int256"
        }
      ],
      "name": "mintNft",
      "outputs": [],
      "stateMutability": "nonpayable",
      "type": "function"
    },
    {
      "inputs": [],
      "name": "name",
      "outputs": [
        {
          "internalType": "string",
          "name": "",
          "type": "string"
        }
      ],
      "stateMutability": "view",
      "type": "function"
    },
    {
      "inputs": [
        {
          "internalType": "uint256",
          "name": "tokenId",
          "type": "uint256"
        }
      ],
      "name": "ownerOf",
      "outputs": [
        {
          "internalType": "address",
          "name": "",
          "type": "address"
        }
      ],
      "stateMutability": "view",
      "type": "function"
    },
    {
      "inputs": [
        {
          "internalType": "address",
          "name": "from",
          "type": "address"
        },
        {
          "internalType": "address",
          "name": "to",
          "type": "address"
        },
        {
          "internalType": "uint256",
          "name": "tokenId",
          "type": "uint256"
        }
      ],
      "name": "safeTransferFrom",
      "outputs": [],
      "stateMutability": "nonpayable",
      "type": "function"
    },
    {
      "inputs": [
        {
          "internalType": "address",
          "name": "from",
          "type": "address"
        },
        {
          "internalType": "address",
          "name": "to",
          "type": "address"
        },
        {
          "internalType": "uint256",
          "name": "tokenId",
          "type": "uint256"
        },
        {
          "internalType": "bytes",
          "name": "data",
          "type": "bytes"
        }
      ],
      "name": "safeTransferFrom",
      "outputs": [],
      "stateMutability": "nonpayable",
      "type": "function"
    },
    {
      "inputs": [
        {
          "internalType": "address",
          "name": "operator",
          "type": "address"
        },
        {
          "internalType": "bool",
          "name": "approved",
          "type": "bool"
        }
      ],
      "name": "setApprovalForAll",
      "outputs": [],
      "stateMutability": "nonpayable",
      "type": "function"
    },
    {
      "inputs": [
        {
          "internalType": "bytes4",
          "name": "interfaceId",
          "type": "bytes4"
        }
      ],
      "name": "supportsInterface",
      "outputs": [
        {
          "internalType": "bool",
          "name": "",
          "type": "bool"
        }
      ],
      "stateMutability": "view",
      "type": "function"
    },
    {
      "inputs": [
        {
          "internalType": "string",
          "name": "svg",
          "type": "string"
        }
      ],
      "name": "svgToImageUri",
      "outputs": [
        {
          "internalType": "string",
          "name": "",
          "type": "string"
        }
      ],
      "stateMutability": "pure",
      "type": "function"
    },
    {
      "inputs": [],
      "name": "symbol",
      "outputs": [
        {
          "internalType": "string",
          "name": "",
          "type": "string"
        }
      ],
      "stateMutability": "view",
      "type": "function"
    },
    {
      "inputs": [
        {
          "internalType": "uint256",
          "name": "",
          "type": "uint256"
        }
      ],
      "name": "tokenIdToHighValue",
      "outputs": [
        {
          "internalType": "int256",
          "name": "",
          "type": "int256"
        }
      ],
      "stateMutability": "view",
      "type": "function"
    },
    {
      "inputs": [
        {
          "internalType": "uint256",
          "name": "tokenId",
          "type": "uint256"
        }
      ],
      "name": "tokenURI",
      "outputs": [
        {
          "internalType": "string",
          "name": "",
          "type": "string"
        }
      ],
      "stateMutability": "view",
      "type": "function"
    },
    {
      "inputs": [
        {
          "internalType": "address",
          "name": "from",
          "type": "address"
        },
        {
          "internalType": "address",
          "name": "to",
          "type": "address"
        },
        {
          "internalType": "uint256",
          "name": "tokenId",
          "type": "uint256"
        }
      ],
      "name": "transferFrom",
      "outputs": [],
      "stateMutability": "nonpayable",
      "type": "function"
    }
  ],
  "transactionHash": "0x7686dc733f99b6f9083e9d3643acb2b6aacf154e3fd030754371b1cabe1fcb7b",
  "args": [
    "0xe7f1725E7734CE288F8367e1Bb143E90bb3F0512",
    "<?xml version=\"1.0\" standalone=\"no\"?>\n<svg width=\"1024px\" height=\"1024px\" viewBox=\"0 0 1024 1024\" xmlns=\"http://www.w3.org/2000/svg\">\n  <path fill=\"#333\" d=\"M512 64C264.6 64 64 264.6 64 512s200.6 448 448 448 448-200.6 448-448S759.4 64 512 64zm0 820c-205.4 0-372-166.6-372-372s166.6-372 372-372 372 166.6 372 372-166.6 372-372 372z\"/>\n  <path fill=\"#E6E6E6\" d=\"M512 140c-205.4 0-372 166.6-372 372s166.6 372 372 372 372-166.6 372-372-166.6-372-372-372zM288 421a48.01 48.01 0 0 1 96 0 48.01 48.01 0 0 1-96 0zm376 272h-48.1c-4.2 0-7.8-3.2-8.1-7.4C604 636.1 562.5 597 512 597s-92.1 39.1-95.8 88.6c-.3 4.2-3.9 7.4-8.1 7.4H360a8 8 0 0 1-8-8.4c4.4-84.3 74.5-151.6 160-151.6s155.6 67.3 160 151.6a8 8 0 0 1-8 8.4zm24-224a48.01 48.01 0 0 1 0-96 48.01 48.01 0 0 1 0 96z\"/>\n  <path fill=\"#333\" d=\"M288 421a48 48 0 1 0 96 0 48 48 0 1 0-96 0zm224 112c-85.5 0-155.6 67.3-160 151.6a8 8 0 0 0 8 8.4h48.1c4.2 0 7.8-3.2 8.1-7.4 3.7-49.5 45.3-88.6 95.8-88.6s92 39.1 95.8 88.6c.3 4.2 3.9 7.4 8.1 7.4H664a8 8 0 0 0 8-8.4C667.6 600.3 597.5 533 512 533zm128-112a48 48 0 1 0 96 0 48 48 0 1 0-96 0z\"/>\n</svg>",
    "<svg viewBox=\"0 0 200 200\" width=\"400\"  height=\"400\" xmlns=\"http://www.w3.org/2000/svg\">\n  <circle cx=\"100\" cy=\"100\" fill=\"yellow\" r=\"78\" stroke=\"black\" stroke-width=\"3\"/>\n  <g class=\"eyes\">\n    <circle cx=\"61\" cy=\"82\" r=\"12\"/>\n    <circle cx=\"127\" cy=\"82\" r=\"12\"/>\n  </g>\n  <path d=\"m136.81 116.53c.69 26.17-64.11 42-81.52-.73\" style=\"fill:none; stroke: black; stroke-width: 3;\"/>\n</svg>"
  ],
  "numDeployments": 1,
  "solcInputHash": "b20b0ba29fd620da541dbcdf205aefd2",
  "bytecode": "0x60a06040523480156200001157600080fd5b5060405162003767380380620037678339818101604052810190620000379190620004e2565b6040518060400160405280600f81526020017f44796e616d696320535647204e465400000000000000000000000000000000008152506040518060400160405280600381526020017f44534e00000000000000000000000000000000000000000000000000000000008152508160009080519060200190620000bb9291906200039d565b508060019080519060200190620000d49291906200039d565b5050506000600681905550620000f0826200017160201b60201c565b60079080519060200190620001079291906200039d565b5062000119816200017160201b60201c565b60089080519060200190620001309291906200039d565b508273ffffffffffffffffffffffffffffffffffffffff1660808173ffffffffffffffffffffffffffffffffffffffff1660601b815250505050506200093a565b60606000620001ac836040516020016200018c9190620005b3565b6040516020818303038152906040526200020f60201b62000d9e1760201c565b90506040518060400160405280601a81526020017f646174613a696d6167652f7376672b786d6c3b6261736536342c00000000000081525081604051602001620001f8929190620005cc565b604051602081830303815290604052915050919050565b6060600082511415620002345760405180602001604052806000815250905062000398565b600060405180606001604052806040815260200162003727604091399050600060036002855162000266919062000669565b620002729190620006c6565b6004620002809190620006fe565b9050600060208262000293919062000669565b67ffffffffffffffff811115620002af57620002ae620008cc565b5b6040519080825280601f01601f191660200182016040528015620002e25781602001600182028036833780820191505090505b509050818152600183018586518101602084015b8183101562000353576003830192508251603f8160121c168501518253600182019150603f81600c1c168501518253600182019150603f8160061c168501518253600182019150603f8116850151825360018201915050620002f6565b60038951066001811462000370576002811462000381576200038c565b613d3d60f01b60028303526200038c565b603d60f81b60018303525b50505050508093505050505b919050565b828054620003ab90620007d3565b90600052602060002090601f016020900481019282620003cf57600085556200041b565b82601f10620003ea57805160ff19168380011785556200041b565b828001600101855582156200041b579182015b828111156200041a578251825591602001919060010190620003fd565b5b5090506200042a91906200042e565b5090565b5b80821115620004495760008160009055506001016200042f565b5090565b6000620004646200045e846200061d565b620005f4565b90508281526020810184848401111562000483576200048262000900565b5b620004908482856200079d565b509392505050565b600081519050620004a98162000920565b92915050565b600082601f830112620004c757620004c6620008fb565b5b8151620004d98482602086016200044d565b91505092915050565b600080600060608486031215620004fe57620004fd6200090a565b5b60006200050e8682870162000498565b935050602084015167ffffffffffffffff81111562000532576200053162000905565b5b6200054086828701620004af565b925050604084015167ffffffffffffffff81111562000564576200056362000905565b5b6200057286828701620004af565b9150509250925092565b6000620005898262000653565b6200059581856200065e565b9350620005a78185602086016200079d565b80840191505092915050565b6000620005c182846200057c565b915081905092915050565b6000620005da82856200057c565b9150620005e882846200057c565b91508190509392505050565b60006200060062000613565b90506200060e828262000809565b919050565b6000604051905090565b600067ffffffffffffffff8211156200063b576200063a620008cc565b5b62000646826200090f565b9050602081019050919050565b600081519050919050565b600081905092915050565b6000620006768262000793565b9150620006838362000793565b9250827fffffffffffffffffffffffffffffffffffffffffffffffffffffffffffffffff03821115620006bb57620006ba6200083f565b5b828201905092915050565b6000620006d38262000793565b9150620006e08362000793565b925082620006f357620006f26200086e565b5b828204905092915050565b60006200070b8262000793565b9150620007188362000793565b9250817fffffffffffffffffffffffffffffffffffffffffffffffffffffffffffffffff04831182151516156200075457620007536200083f565b5b828202905092915050565b60006200076c8262000773565b9050919050565b600073ffffffffffffffffffffffffffffffffffffffff82169050919050565b6000819050919050565b60005b83811015620007bd578082015181840152602081019050620007a0565b83811115620007cd576000848401525b50505050565b60006002820490506001821680620007ec57607f821691505b602082108114156200080357620008026200089d565b5b50919050565b62000814826200090f565b810181811067ffffffffffffffff82111715620008365762000835620008cc565b5b80604052505050565b7f4e487b7100000000000000000000000000000000000000000000000000000000600052601160045260246000fd5b7f4e487b7100000000000000000000000000000000000000000000000000000000600052601260045260246000fd5b7f4e487b7100000000000000000000000000000000000000000000000000000000600052602260045260246000fd5b7f4e487b7100000000000000000000000000000000000000000000000000000000600052604160045260246000fd5b600080fd5b600080fd5b600080fd5b600080fd5b6000601f19601f8301169050919050565b6200092b816200075f565b81146200093757600080fd5b50565b60805160601c612dce620009596000396000610aac0152612dce6000f3fe608060405234801561001057600080fd5b506004361061010b5760003560e01c80636352211e116100a2578063a22cb46511610071578063a22cb465146102ca578063b88d4fde146102e6578063c87b56dd14610302578063e15f34f914610332578063e985e9c5146103625761010b565b80636352211e1461022e5780636e02007d1461025e57806370a082311461027c57806395d89b41146102ac5761010b565b80631e930812116100de5780631e930812146101aa57806323b872dd146101c65780633207d93c146101e257806342842e0e146102125761010b565b806301ffc9a71461011057806306fdde0314610140578063081812fc1461015e578063095ea7b31461018e575b600080fd5b61012a60048036038101906101259190611d72565b610392565b60405161013791906122f6565b60405180910390f35b610148610474565b604051610155919061232c565b60405180910390f35b61017860048036038101906101739190611e42565b610506565b604051610185919061228f565b60405180910390f35b6101a860048036038101906101a39190611d32565b61054c565b005b6101c460048036038101906101bf9190611dcc565b610664565b005b6101e060048036038101906101db9190611c1c565b6106dc565b005b6101fc60048036038101906101f79190611df9565b61073c565b604051610209919061232c565b60405180910390f35b61022c60048036038101906102279190611c1c565b6107c9565b005b61024860048036038101906102439190611e42565b6107e9565b604051610255919061228f565b60405180910390f35b61026661089b565b60405161027391906124ae565b60405180910390f35b61029660048036038101906102919190611baf565b6108a5565b6040516102a391906124ae565b60405180910390f35b6102b461095d565b6040516102c1919061232c565b60405180910390f35b6102e460048036038101906102df9190611cf2565b6109ef565b005b61030060048036038101906102fb9190611c6f565b610a05565b005b61031c60048036038101906103179190611e42565b610a67565b604051610329919061232c565b60405180910390f35b61034c60048036038101906103479190611e42565b610cf2565b6040516103599190612311565b60405180910390f35b61037c60048036038101906103779190611bdc565b610d0a565b60405161038991906122f6565b60405180910390f35b60007f80ac58cd000000000000000000000000000000000000000000000000000000007bffffffffffffffffffffffffffffffffffffffffffffffffffffffff1916827bffffffffffffffffffffffffffffffffffffffffffffffffffffffff1916148061045d57507f5b5e139f000000000000000000000000000000000000000000000000000000007bffffffffffffffffffffffffffffffffffffffffffffffffffffffff1916827bffffffffffffffffffffffffffffffffffffffffffffffffffffffff1916145b8061046d575061046c82610f17565b5b9050919050565b6060600080546104839061277e565b80601f01602080910402602001604051908101604052809291908181526020018280546104af9061277e565b80156104fc5780601f106104d1576101008083540402835291602001916104fc565b820191906000526020600020905b8154815290600101906020018083116104df57829003601f168201915b5050505050905090565b600061051182610f81565b6004600083815260200190815260200160002060009054906101000a900473ffffffffffffffffffffffffffffffffffffffff169050919050565b6000610557826107e9565b90508073ffffffffffffffffffffffffffffffffffffffff168373ffffffffffffffffffffffffffffffffffffffff1614156105c8576040517f08c379a00000000000000000000000000000000000000000000000000000000081526004016105bf9061246e565b60405180910390fd5b8073ffffffffffffffffffffffffffffffffffffffff166105e7610fcc565b73ffffffffffffffffffffffffffffffffffffffff161480610616575061061581610610610fcc565b610d0a565b5b610655576040517f08c379a000000000000000000000000000000000000000000000000000000000815260040161064c9061240e565b60405180910390fd5b61065f8383610fd4565b505050565b6000600654905081600960008381526020019081526020016000208190555061068d338261108d565b60018161069a9190612593565b600681905550807f882d3b5a729a8bb95cf6c0083c99b42ecd9637123d4425bd7b768877fd8af8b0836040516106d09190612311565b60405180910390a25050565b6106ed6106e7610fcc565b826110ab565b61072c576040517f08c379a00000000000000000000000000000000000000000000000000000000081526004016107239061248e565b60405180910390fd5b610737838383611140565b505050565b606060006107688360405160200161075491906121f9565b604051602081830303815290604052610d9e565b90506040518060400160405280601a81526020017f646174613a696d6167652f7376672b786d6c3b6261736536342c000000000000815250816040516020016107b2929190612210565b604051602081830303815290604052915050919050565b6107e483838360405180602001604052806000815250610a05565b505050565b6000806002600084815260200190815260200160002060009054906101000a900473ffffffffffffffffffffffffffffffffffffffff169050600073ffffffffffffffffffffffffffffffffffffffff168173ffffffffffffffffffffffffffffffffffffffff161415610892576040517f08c379a00000000000000000000000000000000000000000000000000000000081526004016108899061244e565b60405180910390fd5b80915050919050565b6000600654905090565b60008073ffffffffffffffffffffffffffffffffffffffff168273ffffffffffffffffffffffffffffffffffffffff161415610916576040517f08c379a000000000000000000000000000000000000000000000000000000000815260040161090d906123ee565b60405180910390fd5b600360008373ffffffffffffffffffffffffffffffffffffffff1673ffffffffffffffffffffffffffffffffffffffff168152602001908152602001600020549050919050565b60606001805461096c9061277e565b80601f01602080910402602001604051908101604052809291908181526020018280546109989061277e565b80156109e55780601f106109ba576101008083540402835291602001916109e5565b820191906000526020600020905b8154815290600101906020018083116109c857829003601f168201915b5050505050905090565b610a016109fa610fcc565b83836113a7565b5050565b610a16610a10610fcc565b836110ab565b610a55576040517f08c379a0000000000000000000000000000000000000000000000000000000008152600401610a4c9061248e565b60405180910390fd5b610a6184848484611514565b50505050565b6060610a7282611570565b610aa8576040517ff20fe2b900000000000000000000000000000000000000000000000000000000815260040160405180910390fd5b60007f000000000000000000000000000000000000000000000000000000000000000073ffffffffffffffffffffffffffffffffffffffff1663feaf968c6040518163ffffffff1660e01b815260040160a06040518083038186803b158015610b1057600080fd5b505afa158015610b24573d6000803e3d6000fd5b505050506040513d601f19601f82011682018060405250810190610b489190611e6f565b505050915050606060096000858152602001908152602001600020548212610bfc5760088054610b779061277e565b80601f0160208091040260200160405190810160405280929190818152602001828054610ba39061277e565b8015610bf05780601f10610bc557610100808354040283529160200191610bf0565b820191906000526020600020905b815481529060010190602001808311610bd357829003601f168201915b50505050509050610c8a565b60078054610c099061277e565b80601f0160208091040260200160405190810160405280929190818152602001828054610c359061277e565b8015610c825780601f10610c5757610100808354040283529160200191610c82565b820191906000526020600020905b815481529060010190602001808311610c6557829003601f168201915b505050505090505b6000610c94610474565b82604051602001610ca6929190612234565b6040516020818303038152906040529050610cbf6115dc565b610cc882610d9e565b604051602001610cd9929190612210565b6040516020818303038152906040529350505050919050565b60096020528060005260406000206000915090505481565b6000600560008473ffffffffffffffffffffffffffffffffffffffff1673ffffffffffffffffffffffffffffffffffffffff16815260200190815260200160002060008373ffffffffffffffffffffffffffffffffffffffff1673ffffffffffffffffffffffffffffffffffffffff16815260200190815260200160002060009054906101000a900460ff16905092915050565b6060600082511415610dc157604051806020016040528060008152509050610f12565b6000604051806060016040528060408152602001612d596040913990506000600360028551610df09190612593565b610dfa91906125e9565b6004610e06919061261a565b90506000602082610e179190612593565b67ffffffffffffffff811115610e3057610e2f61286e565b5b6040519080825280601f01601f191660200182016040528015610e625781602001600182028036833780820191505090505b509050818152600183018586518101602084015b81831015610ed1576003830192508251603f8160121c168501518253600182019150603f81600c1c168501518253600182019150603f8160061c168501518253600182019150603f8116850151825360018201915050610e76565b600389510660018114610eeb5760028114610efb57610f06565b613d3d60f01b6002830352610f06565b603d60f81b60018303525b50505050508093505050505b919050565b60007f01ffc9a7000000000000000000000000000000000000000000000000000000007bffffffffffffffffffffffffffffffffffffffffffffffffffffffff1916827bffffffffffffffffffffffffffffffffffffffffffffffffffffffff1916149050919050565b610f8a81611570565b610fc9576040517f08c379a0000000000000000000000000000000000000000000000000000000008152600401610fc09061244e565b60405180910390fd5b50565b600033905090565b816004600083815260200190815260200160002060006101000a81548173ffffffffffffffffffffffffffffffffffffffff021916908373ffffffffffffffffffffffffffffffffffffffff160217905550808273ffffffffffffffffffffffffffffffffffffffff16611047836107e9565b73ffffffffffffffffffffffffffffffffffffffff167f8c5be1e5ebec7d5bd14f71427d1e84f3dd0314c0f7b2291e5b200ac8c7c3b92560405160405180910390a45050565b6110a7828260405180602001604052806000815250611619565b5050565b6000806110b7836107e9565b90508073ffffffffffffffffffffffffffffffffffffffff168473ffffffffffffffffffffffffffffffffffffffff1614806110f957506110f88185610d0a565b5b8061113757508373ffffffffffffffffffffffffffffffffffffffff1661111f84610506565b73ffffffffffffffffffffffffffffffffffffffff16145b91505092915050565b8273ffffffffffffffffffffffffffffffffffffffff16611160826107e9565b73ffffffffffffffffffffffffffffffffffffffff16146111b6576040517f08c379a00000000000000000000000000000000000000000000000000000000081526004016111ad9061236e565b60405180910390fd5b600073ffffffffffffffffffffffffffffffffffffffff168273ffffffffffffffffffffffffffffffffffffffff161415611226576040517f08c379a000000000000000000000000000000000000000000000000000000000815260040161121d906123ae565b60405180910390fd5b611231838383611674565b61123c600082610fd4565b6001600360008573ffffffffffffffffffffffffffffffffffffffff1673ffffffffffffffffffffffffffffffffffffffff168152602001908152602001600020600082825461128c9190612674565b925050819055506001600360008473ffffffffffffffffffffffffffffffffffffffff1673ffffffffffffffffffffffffffffffffffffffff16815260200190815260200160002060008282546112e39190612593565b92505081905550816002600083815260200190815260200160002060006101000a81548173ffffffffffffffffffffffffffffffffffffffff021916908373ffffffffffffffffffffffffffffffffffffffff160217905550808273ffffffffffffffffffffffffffffffffffffffff168473ffffffffffffffffffffffffffffffffffffffff167fddf252ad1be2c89b69c2b068fc378daa952ba7f163c4a11628f55a4df523b3ef60405160405180910390a46113a2838383611679565b505050565b8173ffffffffffffffffffffffffffffffffffffffff168373ffffffffffffffffffffffffffffffffffffffff161415611416576040517f08c379a000000000000000000000000000000000000000000000000000000000815260040161140d906123ce565b60405180910390fd5b80600560008573ffffffffffffffffffffffffffffffffffffffff1673ffffffffffffffffffffffffffffffffffffffff16815260200190815260200160002060008473ffffffffffffffffffffffffffffffffffffffff1673ffffffffffffffffffffffffffffffffffffffff16815260200190815260200160002060006101000a81548160ff0219169083151502179055508173ffffffffffffffffffffffffffffffffffffffff168373ffffffffffffffffffffffffffffffffffffffff167f17307eab39ab6107e8899845ad3d59bd9653f200f220920489ca2b5937696c318360405161150791906122f6565b60405180910390a3505050565b61151f848484611140565b61152b8484848461167e565b61156a576040517f08c379a00000000000000000000000000000000000000000000000000000000081526004016115619061234e565b60405180910390fd5b50505050565b60008073ffffffffffffffffffffffffffffffffffffffff166002600084815260200190815260200160002060009054906101000a900473ffffffffffffffffffffffffffffffffffffffff1673ffffffffffffffffffffffffffffffffffffffff1614159050919050565b60606040518060400160405280601d81526020017f646174613a6170706c69636174696f6e2f6a736f6e3b6261736536342c000000815250905090565b6116238383611815565b611630600084848461167e565b61166f576040517f08c379a00000000000000000000000000000000000000000000000000000000081526004016116669061234e565b60405180910390fd5b505050565b505050565b505050565b600061169f8473ffffffffffffffffffffffffffffffffffffffff166119ef565b15611808578373ffffffffffffffffffffffffffffffffffffffff1663150b7a026116c8610fcc565b8786866040518563ffffffff1660e01b81526004016116ea94939291906122aa565b602060405180830381600087803b15801561170457600080fd5b505af192505050801561173557506040513d601f19601f820116820180604052508101906117329190611d9f565b60015b6117b8573d8060008114611765576040519150601f19603f3d011682016040523d82523d6000602084013e61176a565b606091505b506000815114156117b0576040517f08c379a00000000000000000000000000000000000000000000000000000000081526004016117a79061234e565b60405180910390fd5b805181602001fd5b63150b7a0260e01b7bffffffffffffffffffffffffffffffffffffffffffffffffffffffff1916817bffffffffffffffffffffffffffffffffffffffffffffffffffffffff19161491505061180d565b600190505b949350505050565b600073ffffffffffffffffffffffffffffffffffffffff168273ffffffffffffffffffffffffffffffffffffffff161415611885576040517f08c379a000000000000000000000000000000000000000000000000000000000815260040161187c9061242e565b60405180910390fd5b61188e81611570565b156118ce576040517f08c379a00000000000000000000000000000000000000000000000000000000081526004016118c59061238e565b60405180910390fd5b6118da60008383611674565b6001600360008473ffffffffffffffffffffffffffffffffffffffff1673ffffffffffffffffffffffffffffffffffffffff168152602001908152602001600020600082825461192a9190612593565b92505081905550816002600083815260200190815260200160002060006101000a81548173ffffffffffffffffffffffffffffffffffffffff021916908373ffffffffffffffffffffffffffffffffffffffff160217905550808273ffffffffffffffffffffffffffffffffffffffff16600073ffffffffffffffffffffffffffffffffffffffff167fddf252ad1be2c89b69c2b068fc378daa952ba7f163c4a11628f55a4df523b3ef60405160405180910390a46119eb60008383611679565b5050565b6000808273ffffffffffffffffffffffffffffffffffffffff163b119050919050565b6000611a25611a20846124ee565b6124c9565b905082815260208101848484011115611a4157611a406128a2565b5b611a4c84828561273c565b509392505050565b6000611a67611a628461251f565b6124c9565b905082815260208101848484011115611a8357611a826128a2565b5b611a8e84828561273c565b509392505050565b600081359050611aa581612cce565b92915050565b600081359050611aba81612ce5565b92915050565b600081359050611acf81612cfc565b92915050565b600081519050611ae481612cfc565b92915050565b600082601f830112611aff57611afe61289d565b5b8135611b0f848260208601611a12565b91505092915050565b600081359050611b2781612d13565b92915050565b600081519050611b3c81612d13565b92915050565b600082601f830112611b5757611b5661289d565b5b8135611b67848260208601611a54565b91505092915050565b600081359050611b7f81612d2a565b92915050565b600081519050611b9481612d2a565b92915050565b600081519050611ba981612d41565b92915050565b600060208284031215611bc557611bc46128ac565b5b6000611bd384828501611a96565b91505092915050565b60008060408385031215611bf357611bf26128ac565b5b6000611c0185828601611a96565b9250506020611c1285828601611a96565b9150509250929050565b600080600060608486031215611c3557611c346128ac565b5b6000611c4386828701611a96565b9350506020611c5486828701611a96565b9250506040611c6586828701611b70565b9150509250925092565b60008060008060808587031215611c8957611c886128ac565b5b6000611c9787828801611a96565b9450506020611ca887828801611a96565b9350506040611cb987828801611b70565b925050606085013567ffffffffffffffff811115611cda57611cd96128a7565b5b611ce687828801611aea565b91505092959194509250565b60008060408385031215611d0957611d086128ac565b5b6000611d1785828601611a96565b9250506020611d2885828601611aab565b9150509250929050565b60008060408385031215611d4957611d486128ac565b5b6000611d5785828601611a96565b9250506020611d6885828601611b70565b9150509250929050565b600060208284031215611d8857611d876128ac565b5b6000611d9684828501611ac0565b91505092915050565b600060208284031215611db557611db46128ac565b5b6000611dc384828501611ad5565b91505092915050565b600060208284031215611de257611de16128ac565b5b6000611df084828501611b18565b91505092915050565b600060208284031215611e0f57611e0e6128ac565b5b600082013567ffffffffffffffff811115611e2d57611e2c6128a7565b5b611e3984828501611b42565b91505092915050565b600060208284031215611e5857611e576128ac565b5b6000611e6684828501611b70565b91505092915050565b600080600080600060a08688031215611e8b57611e8a6128ac565b5b6000611e9988828901611b9a565b9550506020611eaa88828901611b2d565b9450506040611ebb88828901611b85565b9350506060611ecc88828901611b85565b9250506080611edd88828901611b9a565b9150509295509295909350565b611ef3816126a8565b82525050565b611f02816126ba565b82525050565b6000611f1382612550565b611f1d8185612566565b9350611f2d81856020860161274b565b611f36816128b1565b840191505092915050565b611f4a816126f2565b82525050565b6000611f5b8261255b565b611f658185612577565b9350611f7581856020860161274b565b611f7e816128b1565b840191505092915050565b6000611f948261255b565b611f9e8185612588565b9350611fae81856020860161274b565b80840191505092915050565b6000611fc7600983612588565b9150611fd2826128c2565b600982019050919050565b6000611fea603283612577565b9150611ff5826128eb565b604082019050919050565b600061200d602583612577565b91506120188261293a565b604082019050919050565b6000612030601c83612577565b915061203b82612989565b602082019050919050565b6000612053602483612577565b915061205e826129b2565b604082019050919050565b6000612076601983612577565b915061208182612a01565b602082019050919050565b6000612099603583612588565b91506120a482612a2a565b603582019050919050565b60006120bc602983612577565b91506120c782612a79565b604082019050919050565b60006120df600983612588565b91506120ea82612ac8565b600982019050919050565b6000612102600283612588565b915061210d82612af1565b600282019050919050565b6000612125603e83612577565b915061213082612b1a565b604082019050919050565b6000612148602083612577565b915061215382612b69565b602082019050919050565b600061216b601883612577565b915061217682612b92565b602082019050919050565b600061218e602183612577565b915061219982612bbb565b604082019050919050565b60006121b1604783612588565b91506121bc82612c0a565b604782019050919050565b60006121d4602e83612577565b91506121df82612c7f565b604082019050919050565b6121f38161271c565b82525050565b60006122058284611f89565b915081905092915050565b600061221c8285611f89565b91506122288284611f89565b91508190509392505050565b600061223f82611fba565b915061224b8285611f89565b9150612256826121a4565b91506122618261208c565b915061226c826120d2565b91506122788284611f89565b9150612283826120f5565b91508190509392505050565b60006020820190506122a46000830184611eea565b92915050565b60006080820190506122bf6000830187611eea565b6122cc6020830186611eea565b6122d960408301856121ea565b81810360608301526122eb8184611f08565b905095945050505050565b600060208201905061230b6000830184611ef9565b92915050565b60006020820190506123266000830184611f41565b92915050565b600060208201905081810360008301526123468184611f50565b905092915050565b6000602082019050818103600083015261236781611fdd565b9050919050565b6000602082019050818103600083015261238781612000565b9050919050565b600060208201905081810360008301526123a781612023565b9050919050565b600060208201905081810360008301526123c781612046565b9050919050565b600060208201905081810360008301526123e781612069565b9050919050565b60006020820190508181036000830152612407816120af565b9050919050565b6000602082019050818103600083015261242781612118565b9050919050565b600060208201905081810360008301526124478161213b565b9050919050565b600060208201905081810360008301526124678161215e565b9050919050565b6000602082019050818103600083015261248781612181565b9050919050565b600060208201905081810360008301526124a7816121c7565b9050919050565b60006020820190506124c360008301846121ea565b92915050565b60006124d36124e4565b90506124df82826127b0565b919050565b6000604051905090565b600067ffffffffffffffff8211156125095761250861286e565b5b612512826128b1565b9050602081019050919050565b600067ffffffffffffffff82111561253a5761253961286e565b5b612543826128b1565b9050602081019050919050565b600081519050919050565b600081519050919050565b600082825260208201905092915050565b600082825260208201905092915050565b600081905092915050565b600061259e8261271c565b91506125a98361271c565b9250827fffffffffffffffffffffffffffffffffffffffffffffffffffffffffffffffff038211156125de576125dd6127e1565b5b828201905092915050565b60006125f48261271c565b91506125ff8361271c565b92508261260f5761260e612810565b5b828204905092915050565b60006126258261271c565b91506126308361271c565b9250817fffffffffffffffffffffffffffffffffffffffffffffffffffffffffffffffff0483118215151615612669576126686127e1565b5b828202905092915050565b600061267f8261271c565b915061268a8361271c565b92508282101561269d5761269c6127e1565b5b828203905092915050565b60006126b3826126fc565b9050919050565b60008115159050919050565b60007fffffffff0000000000000000000000000000000000000000000000000000000082169050919050565b6000819050919050565b600073ffffffffffffffffffffffffffffffffffffffff82169050919050565b6000819050919050565b600069ffffffffffffffffffff82169050919050565b82818337600083830152505050565b60005b8381101561276957808201518184015260208101905061274e565b83811115612778576000848401525b50505050565b6000600282049050600182168061279657607f821691505b602082108114156127aa576127a961283f565b5b50919050565b6127b9826128b1565b810181811067ffffffffffffffff821117156127d8576127d761286e565b5b80604052505050565b7f4e487b7100000000000000000000000000000000000000000000000000000000600052601160045260246000fd5b7f4e487b7100000000000000000000000000000000000000000000000000000000600052601260045260246000fd5b7f4e487b7100000000000000000000000000000000000000000000000000000000600052602260045260246000fd5b7f4e487b7100000000000000000000000000000000000000000000000000000000600052604160045260246000fd5b600080fd5b600080fd5b600080fd5b600080fd5b6000601f19601f8301169050919050565b7f7b226e616d65223a220000000000000000000000000000000000000000000000600082015250565b7f4552433732313a207472616e7366657220746f206e6f6e20455243373231526560008201527f63656976657220696d706c656d656e7465720000000000000000000000000000602082015250565b7f4552433732313a207472616e736665722066726f6d20696e636f72726563742060008201527f6f776e6572000000000000000000000000000000000000000000000000000000602082015250565b7f4552433732313a20746f6b656e20616c7265616479206d696e74656400000000600082015250565b7f4552433732313a207472616e7366657220746f20746865207a65726f2061646460008201527f7265737300000000000000000000000000000000000000000000000000000000602082015250565b7f4552433732313a20617070726f766520746f2063616c6c657200000000000000600082015250565b7f2241747472696275746573223a5b7b2274726169745f74797065223a22636f6f60008201527f6c6e657373222c2276616c7565223a3130307d5d2c0000000000000000000000602082015250565b7f4552433732313a2061646472657373207a65726f206973206e6f74206120766160008201527f6c6964206f776e65720000000000000000000000000000000000000000000000602082015250565b7f22696d616765223a220000000000000000000000000000000000000000000000600082015250565b7f227d000000000000000000000000000000000000000000000000000000000000600082015250565b7f4552433732313a20617070726f76652063616c6c6572206973206e6f7420746f60008201527f6b656e206f776e6572206e6f7220617070726f76656420666f7220616c6c0000602082015250565b7f4552433732313a206d696e7420746f20746865207a65726f2061646472657373600082015250565b7f4552433732313a20696e76616c696420746f6b656e2049440000000000000000600082015250565b7f4552433732313a20617070726f76616c20746f2063757272656e74206f776e6560008201527f7200000000000000000000000000000000000000000000000000000000000000602082015250565b7f222c224465736372697074696f6e223a22416e204e465420746861742063686160008201527f6e676573206f6e2062617365206f6620636861696e6c696e6b2070726963652060208201527f6665656421222c00000000000000000000000000000000000000000000000000604082015250565b7f4552433732313a2063616c6c6572206973206e6f7420746f6b656e206f776e6560008201527f72206e6f7220617070726f766564000000000000000000000000000000000000602082015250565b612cd7816126a8565b8114612ce257600080fd5b50565b612cee816126ba565b8114612cf957600080fd5b50565b612d05816126c6565b8114612d1057600080fd5b50565b612d1c816126f2565b8114612d2757600080fd5b50565b612d338161271c565b8114612d3e57600080fd5b50565b612d4a81612726565b8114612d5557600080fd5b5056fe4142434445464748494a4b4c4d4e4f505152535455565758595a6162636465666768696a6b6c6d6e6f707172737475767778797a303132333435363738392b2fa2646970667358221220f597b9881a08f7d864dee59067fdb6804ad59b86ae444d0db5b72198f227388064736f6c634300080700334142434445464748494a4b4c4d4e4f505152535455565758595a6162636465666768696a6b6c6d6e6f707172737475767778797a303132333435363738392b2f",
  "devdoc": {
    "kind": "dev",
    "methods": {
      "approve(address,uint256)": {
        "details": "See {IERC721-approve}."
      },
      "balanceOf(address)": {
        "details": "See {IERC721-balanceOf}."
      },
      "getApproved(uint256)": {
        "details": "See {IERC721-getApproved}."
      },
      "isApprovedForAll(address,address)": {
        "details": "See {IERC721-isApprovedForAll}."
      },
      "name()": {
        "details": "See {IERC721Metadata-name}."
      },
      "ownerOf(uint256)": {
        "details": "See {IERC721-ownerOf}."
      },
      "safeTransferFrom(address,address,uint256)": {
        "details": "See {IERC721-safeTransferFrom}."
      },
      "safeTransferFrom(address,address,uint256,bytes)": {
        "details": "See {IERC721-safeTransferFrom}."
      },
      "setApprovalForAll(address,bool)": {
        "details": "See {IERC721-setApprovalForAll}."
      },
      "supportsInterface(bytes4)": {
        "details": "See {IERC165-supportsInterface}."
      },
      "symbol()": {
        "details": "See {IERC721Metadata-symbol}."
      },
      "tokenURI(uint256)": {
        "details": "See {IERC721Metadata-tokenURI}."
      },
      "transferFrom(address,address,uint256)": {
        "details": "See {IERC721-transferFrom}."
      }
    },
    "version": 1
  },
  "userdoc": {
    "kind": "user",
    "methods": {},
    "version": 1
  },
  "storageLayout": {
    "storage": [
      {
        "astId": 1005,
        "contract": "contracts/DynamicSvgNft.sol:DynamicSvgNft",
        "label": "_name",
        "offset": 0,
        "slot": "0",
        "type": "t_string_storage"
      },
      {
        "astId": 1007,
        "contract": "contracts/DynamicSvgNft.sol:DynamicSvgNft",
        "label": "_symbol",
        "offset": 0,
        "slot": "1",
        "type": "t_string_storage"
      },
      {
        "astId": 1011,
        "contract": "contracts/DynamicSvgNft.sol:DynamicSvgNft",
        "label": "_owners",
        "offset": 0,
        "slot": "2",
        "type": "t_mapping(t_uint256,t_address)"
      },
      {
        "astId": 1015,
        "contract": "contracts/DynamicSvgNft.sol:DynamicSvgNft",
        "label": "_balances",
        "offset": 0,
        "slot": "3",
        "type": "t_mapping(t_address,t_uint256)"
      },
      {
        "astId": 1019,
        "contract": "contracts/DynamicSvgNft.sol:DynamicSvgNft",
        "label": "_tokenApprovals",
        "offset": 0,
        "slot": "4",
        "type": "t_mapping(t_uint256,t_address)"
      },
      {
        "astId": 1025,
        "contract": "contracts/DynamicSvgNft.sol:DynamicSvgNft",
        "label": "_operatorApprovals",
        "offset": 0,
        "slot": "5",
        "type": "t_mapping(t_address,t_mapping(t_address,t_bool))"
      },
      {
        "astId": 2908,
        "contract": "contracts/DynamicSvgNft.sol:DynamicSvgNft",
        "label": "s_TokenCounter",
        "offset": 0,
        "slot": "6",
        "type": "t_uint256"
      },
      {
        "astId": 2913,
        "contract": "contracts/DynamicSvgNft.sol:DynamicSvgNft",
        "label": "s_lowImageUri",
        "offset": 0,
        "slot": "7",
        "type": "t_string_storage"
      },
      {
        "astId": 2915,
        "contract": "contracts/DynamicSvgNft.sol:DynamicSvgNft",
        "label": "s_highImageUri",
        "offset": 0,
        "slot": "8",
        "type": "t_string_storage"
      },
      {
        "astId": 2919,
        "contract": "contracts/DynamicSvgNft.sol:DynamicSvgNft",
        "label": "tokenIdToHighValue",
        "offset": 0,
        "slot": "9",
        "type": "t_mapping(t_uint256,t_int256)"
      }
    ],
    "types": {
      "t_address": {
        "encoding": "inplace",
        "label": "address",
        "numberOfBytes": "20"
      },
      "t_bool": {
        "encoding": "inplace",
        "label": "bool",
        "numberOfBytes": "1"
      },
      "t_int256": {
        "encoding": "inplace",
        "label": "int256",
        "numberOfBytes": "32"
      },
      "t_mapping(t_address,t_bool)": {
        "encoding": "mapping",
        "key": "t_address",
        "label": "mapping(address => bool)",
        "numberOfBytes": "32",
        "value": "t_bool"
      },
      "t_mapping(t_address,t_mapping(t_address,t_bool))": {
        "encoding": "mapping",
        "key": "t_address",
        "label": "mapping(address => mapping(address => bool))",
        "numberOfBytes": "32",
        "value": "t_mapping(t_address,t_bool)"
      },
      "t_mapping(t_address,t_uint256)": {
        "encoding": "mapping",
        "key": "t_address",
        "label": "mapping(address => uint256)",
        "numberOfBytes": "32",
        "value": "t_uint256"
      },
      "t_mapping(t_uint256,t_address)": {
        "encoding": "mapping",
        "key": "t_uint256",
        "label": "mapping(uint256 => address)",
        "numberOfBytes": "32",
        "value": "t_address"
      },
      "t_mapping(t_uint256,t_int256)": {
        "encoding": "mapping",
        "key": "t_uint256",
        "label": "mapping(uint256 => int256)",
        "numberOfBytes": "32",
        "value": "t_int256"
      },
      "t_string_storage": {
        "encoding": "bytes",
        "label": "string",
        "numberOfBytes": "32"
      },
      "t_uint256": {
        "encoding": "inplace",
        "label": "uint256",
        "numberOfBytes": "32"
      }
    }
  }
}