{
  "address": "0x5FC8d32690cc91D4c39d9d3abcBD16989F875707",
  "abi": [
    {
      "inputs": [
        {
          "internalType": "address",
          "name": "vrfCoordinator",
          "type": "address"
        },
        {
          "internalType": "uint64",
          "name": "subscriptionId",
          "type": "uint64"
        },
        {
          "internalType": "bytes32",
          "name": "keyHash",
          "type": "bytes32"
        },
        {
          "internalType": "uint32",
          "name": "callbackGasLimit",
          "type": "uint32"
        },
        {
          "internalType": "string[3]",
          "name": "dogTokenUri",
          "type": "string[3]"
        },
        {
          "internalType": "uint256",
          "name": "mintFee",
          "type": "uint256"
        }
      ],
      "stateMutability": "nonpayable",
      "type": "constructor"
    },
    {
      "inputs": [
        {
          "internalType": "address",
          "name": "have",
          "type": "address"
        },
        {
          "internalType": "address",
          "name": "want",
          "type": "address"
        }
      ],
      "name": "OnlyCoordinatorCanFulfill",
      "type": "error"
    },
    {
      "inputs": [],
      "name": "RandomIpfsNft__NotEnoughETH",
      "type": "error"
    },
    {
      "inputs": [],
      "name": "RandomIpfsNft__RangeOutOfBounds",
      "type": "error"
    },
    {
      "inputs": [],
      "name": "RandomIpfsNft__TransferFailed",
      "type": "error"
    },
    {
      "anonymous": false,
      "inputs": [
        {
          "indexed": true,
          "internalType": "address",
          "name": "owner",
          "type": "address"
        },
        {
          "indexed": true,
          "internalType": "address",
          "name": "approved",
          "type": "address"
        },
        {
          "indexed": true,
          "internalType": "uint256",
          "name": "tokenId",
          "type": "uint256"
        }
      ],
      "name": "Approval",
      "type": "event"
    },
    {
      "anonymous": false,
      "inputs": [
        {
          "indexed": true,
          "internalType": "address",
          "name": "owner",
          "type": "address"
        },
        {
          "indexed": true,
          "internalType": "address",
          "name": "operator",
          "type": "address"
        },
        {
          "indexed": false,
          "internalType": "bool",
          "name": "approved",
          "type": "bool"
        }
      ],
      "name": "ApprovalForAll",
      "type": "event"
    },
    {
      "anonymous": false,
      "inputs": [
        {
          "indexed": false,
          "internalType": "enum RandomIpfsNft.Breed",
          "name": "dogBreed",
          "type": "uint8"
        },
        {
          "indexed": false,
          "internalType": "address",
          "name": "minter",
          "type": "address"
        }
      ],
      "name": "NftMinted",
      "type": "event"
    },
    {
      "anonymous": false,
      "inputs": [
        {
          "indexed": true,
          "internalType": "uint256",
          "name": "requestId",
          "type": "uint256"
        },
        {
          "indexed": false,
          "internalType": "address",
          "name": "requestSender",
          "type": "address"
        }
      ],
      "name": "NftRequested",
      "type": "event"
    },
    {
      "anonymous": false,
      "inputs": [
        {
          "indexed": true,
          "internalType": "address",
          "name": "previousOwner",
          "type": "address"
        },
        {
          "indexed": true,
          "internalType": "address",
          "name": "newOwner",
          "type": "address"
        }
      ],
      "name": "OwnershipTransferred",
      "type": "event"
    },
    {
      "anonymous": false,
      "inputs": [
        {
          "indexed": true,
          "internalType": "address",
          "name": "from",
          "type": "address"
        },
        {
          "indexed": true,
          "internalType": "address",
          "name": "to",
          "type": "address"
        },
        {
          "indexed": true,
          "internalType": "uint256",
          "name": "tokenId",
          "type": "uint256"
        }
      ],
      "name": "Transfer",
      "type": "event"
    },
    {
      "inputs": [
        {
          "internalType": "address",
          "name": "to",
          "type": "address"
        },
        {
          "internalType": "uint256",
          "name": "tokenId",
          "type": "uint256"
        }
      ],
      "name": "approve",
      "outputs": [],
      "stateMutability": "nonpayable",
      "type": "function"
    },
    {
      "inputs": [
        {
          "internalType": "address",
          "name": "owner",
          "type": "address"
        }
      ],
      "name": "balanceOf",
      "outputs": [
        {
          "internalType": "uint256",
          "name": "",
          "type": "uint256"
        }
      ],
      "stateMutability": "view",
      "type": "function"
    },
    {
      "inputs": [
        {
          "internalType": "uint256",
          "name": "tokenId",
          "type": "uint256"
        }
      ],
      "name": "getApproved",
      "outputs": [
        {
          "internalType": "address",
          "name": "",
          "type": "address"
        }
      ],
      "stateMutability": "view",
      "type": "function"
    },
    {
      "inputs": [],
      "name": "getBalance",
      "outputs": [
        {
          "internalType": "uint256",
          "name": "",
          "type": "uint256"
        }
      ],
      "stateMutability": "view",
      "type": "function"
    },
    {
      "inputs": [
        {
          "internalType": "uint256",
          "name": "moddedRandomNft",
          "type": "uint256"
        }
      ],
      "name": "getBreed",
      "outputs": [
        {
          "internalType": "enum RandomIpfsNft.Breed",
          "name": "",
          "type": "uint8"
        }
      ],
      "stateMutability": "pure",
      "type": "function"
    },
    {
      "inputs": [],
      "name": "getChanceArray",
      "outputs": [
        {
          "internalType": "uint256[3]",
          "name": "",
          "type": "uint256[3]"
        }
      ],
      "stateMutability": "pure",
      "type": "function"
    },
    {
      "inputs": [
        {
          "internalType": "uint256",
          "name": "index",
          "type": "uint256"
        }
      ],
      "name": "getDogTokenUri",
      "outputs": [
        {
          "internalType": "string",
          "name": "",
          "type": "string"
        }
      ],
      "stateMutability": "view",
      "type": "function"
    },
    {
      "inputs": [],
      "name": "getMintFee",
      "outputs": [
        {
          "internalType": "uint256",
          "name": "",
          "type": "uint256"
        }
      ],
      "stateMutability": "view",
      "type": "function"
    },
    {
      "inputs": [],
      "name": "getTokenCounter",
      "outputs": [
        {
          "internalType": "uint256",
          "name": "",
          "type": "uint256"
        }
      ],
      "stateMutability": "view",
      "type": "function"
    },
    {
      "inputs": [
        {
          "internalType": "address",
          "name": "owner",
          "type": "address"
        },
        {
          "internalType": "address",
          "name": "operator",
          "type": "address"
        }
      ],
      "name": "isApprovedForAll",
      "outputs": [
        {
          "internalType": "bool",
          "name": "",
          "type": "bool"
        }
      ],
      "stateMutability": "view",
      "type": "function"
    },
    {
      "inputs": [],
      "name": "name",
      "outputs": [
        {
          "internalType": "string",
          "name": "",
          "type": "string"
        }
      ],
      "stateMutability": "view",
      "type": "function"
    },
    {
      "inputs": [],
      "name": "owner",
      "outputs": [
        {
          "internalType": "address",
          "name": "",
          "type": "address"
        }
      ],
      "stateMutability": "view",
      "type": "function"
    },
    {
      "inputs": [
        {
          "internalType": "uint256",
          "name": "tokenId",
          "type": "uint256"
        }
      ],
      "name": "ownerOf",
      "outputs": [
        {
          "internalType": "address",
          "name": "",
          "type": "address"
        }
      ],
      "stateMutability": "view",
      "type": "function"
    },
    {
      "inputs": [
        {
          "internalType": "uint256",
          "name": "requestId",
          "type": "uint256"
        },
        {
          "internalType": "uint256[]",
          "name": "randomWords",
          "type": "uint256[]"
        }
      ],
      "name": "rawFulfillRandomWords",
      "outputs": [],
      "stateMutability": "nonpayable",
      "type": "function"
    },
    {
      "inputs": [],
      "name": "renounceOwnership",
      "outputs": [],
      "stateMutability": "nonpayable",
      "type": "function"
    },
    {
      "inputs": [],
      "name": "requestNft",
      "outputs": [
        {
          "internalType": "uint256",
          "name": "requestId",
          "type": "uint256"
        }
      ],
      "stateMutability": "payable",
      "type": "function"
    },
    {
      "inputs": [
        {
          "internalType": "address",
          "name": "from",
          "type": "address"
        },
        {
          "internalType": "address",
          "name": "to",
          "type": "address"
        },
        {
          "internalType": "uint256",
          "name": "tokenId",
          "type": "uint256"
        }
      ],
      "name": "safeTransferFrom",
      "outputs": [],
      "stateMutability": "nonpayable",
      "type": "function"
    },
    {
      "inputs": [
        {
          "internalType": "address",
          "name": "from",
          "type": "address"
        },
        {
          "internalType": "address",
          "name": "to",
          "type": "address"
        },
        {
          "internalType": "uint256",
          "name": "tokenId",
          "type": "uint256"
        },
        {
          "internalType": "bytes",
          "name": "data",
          "type": "bytes"
        }
      ],
      "name": "safeTransferFrom",
      "outputs": [],
      "stateMutability": "nonpayable",
      "type": "function"
    },
    {
      "inputs": [
        {
          "internalType": "address",
          "name": "operator",
          "type": "address"
        },
        {
          "internalType": "bool",
          "name": "approved",
          "type": "bool"
        }
      ],
      "name": "setApprovalForAll",
      "outputs": [],
      "stateMutability": "nonpayable",
      "type": "function"
    },
    {
      "inputs": [
        {
          "internalType": "bytes4",
          "name": "interfaceId",
          "type": "bytes4"
        }
      ],
      "name": "supportsInterface",
      "outputs": [
        {
          "internalType": "bool",
          "name": "",
          "type": "bool"
        }
      ],
      "stateMutability": "view",
      "type": "function"
    },
    {
      "inputs": [],
      "name": "symbol",
      "outputs": [
        {
          "internalType": "string",
          "name": "",
          "type": "string"
        }
      ],
      "stateMutability": "view",
      "type": "function"
    },
    {
      "inputs": [
        {
          "internalType": "uint256",
          "name": "tokenId",
          "type": "uint256"
        }
      ],
      "name": "tokenURI",
      "outputs": [
        {
          "internalType": "string",
          "name": "",
          "type": "string"
        }
      ],
      "stateMutability": "view",
      "type": "function"
    },
    {
      "inputs": [
        {
          "internalType": "address",
          "name": "from",
          "type": "address"
        },
        {
          "internalType": "address",
          "name": "to",
          "type": "address"
        },
        {
          "internalType": "uint256",
          "name": "tokenId",
          "type": "uint256"
        }
      ],
      "name": "transferFrom",
      "outputs": [],
      "stateMutability": "nonpayable",
      "type": "function"
    },
    {
      "inputs": [
        {
          "internalType": "address",
          "name": "newOwner",
          "type": "address"
        }
      ],
      "name": "transferOwnership",
      "outputs": [],
      "stateMutability": "nonpayable",
      "type": "function"
    },
    {
      "inputs": [],
      "name": "withdraw",
      "outputs": [],
      "stateMutability": "nonpayable",
      "type": "function"
    }
  ],
  "transactionHash": "0x41b038fea76943c4857944d21cfef19ece87b71d80b806bf5a4f2e6c328e827d",
  "args": [
    "0x5FbDB2315678afecb367f032d93F642f64180aa3",
    "1",
    "0xd89b2bf150e3b9e13446986e571fb9cab24b13cea0a43ea20a6049a85cc807cc",
    "1073741824",
    [
      "ipfs://bafyreiffrfcog33kylznfeqjdf4lsy5t3cjaxyvdam3v7d35znmwuxfcze/metadata.json",
      "ipfs://bafyreidpch6s3eocgwiwp6as2xwshpyz7k3rss3ri7fe4rykyhczctpwyi/metadata.json",
      "ipfs://bafyreibwwvy5kubfe45hyx5njem7oje7hb7nmtoja3stujngtlmrwsjsym/metadata.json"
    ],
    "10000000000000000"
  ],
  "numDeployments": 1,
  "solcInputHash": "b949dc81e5dfbcdadb4862477bb0b7b0",
  "bytecode": "0x6101406040523480156200001257600080fd5b5060405162004395380380620043958339818101604052810190620000389190620005d2565b6040518060400160405280600d81526020017f52616e646f6d497066734e6674000000000000000000000000000000000000008152506040518060400160405280600381526020017f52494e0000000000000000000000000000000000000000000000000000000000815250878073ffffffffffffffffffffffffffffffffffffffff1660808173ffffffffffffffffffffffffffffffffffffffff1660601b81525050508160009080519060200190620000f5929190620002a6565b5080600190805190602001906200010e929190620002a6565b5050506200013162000125620001d860201b60201c565b620001e060201b60201c565b8467ffffffffffffffff1660a08167ffffffffffffffff1660c01b815250508573ffffffffffffffffffffffffffffffffffffffff1660c08173ffffffffffffffffffffffffffffffffffffffff1660601b815250508360e081815250508263ffffffff166101008163ffffffff1660e01b81525050600060098190555081600a906003620001c292919062000337565b508061012081815250505050505050506200092d565b600033905090565b6000600760009054906101000a900473ffffffffffffffffffffffffffffffffffffffff16905081600760006101000a81548173ffffffffffffffffffffffffffffffffffffffff021916908373ffffffffffffffffffffffffffffffffffffffff1602179055508173ffffffffffffffffffffffffffffffffffffffff168173ffffffffffffffffffffffffffffffffffffffff167f8be0079c531659141344cd1fd0a4f28419497f9722a3daafe3b4186f6b6457e060405160405180910390a35050565b828054620002b490620007b7565b90600052602060002090601f016020900481019282620002d8576000855562000324565b82601f10620002f357805160ff191683800117855562000324565b8280016001018555821562000324579182015b828111156200032357825182559160200191906001019062000306565b5b50905062000333919062000391565b5090565b82600381019282156200037e579160200282015b828111156200037d5782518290805190602001906200036c929190620002a6565b50916020019190600101906200034b565b5b5090506200038d9190620003b0565b5090565b5b80821115620003ac57600081600090555060010162000392565b5090565b5b80821115620003d45760008181620003ca9190620003d8565b50600101620003b1565b5090565b508054620003e690620007b7565b6000825580601f10620003fa57506200041b565b601f0160209004906000526020600020908101906200041a919062000391565b5b50565b6000620004356200042f84620006b6565b6200068d565b9050808285602086028201111562000452576200045162000886565b5b60005b85811015620004a757815167ffffffffffffffff8111156200047c576200047b62000881565b5b8086016200048b89826200055a565b8552602085019450602084019350505060018101905062000455565b5050509392505050565b6000620004c8620004c284620006df565b6200068d565b905082815260208101848484011115620004e757620004e66200088b565b5b620004f484828562000781565b509392505050565b6000815190506200050d81620008ab565b92915050565b600082601f8301126200052b576200052a62000881565b5b60036200053a8482856200041e565b91505092915050565b6000815190506200055481620008c5565b92915050565b600082601f83011262000572576200057162000881565b5b815162000584848260208601620004b1565b91505092915050565b6000815190506200059e81620008df565b92915050565b600081519050620005b581620008f9565b92915050565b600081519050620005cc8162000913565b92915050565b60008060008060008060c08789031215620005f257620005f162000895565b5b60006200060289828a01620004fc565b96505060206200061589828a01620005bb565b95505060406200062889828a0162000543565b94505060606200063b89828a01620005a4565b935050608087015167ffffffffffffffff8111156200065f576200065e62000890565b5b6200066d89828a0162000513565b92505060a06200068089828a016200058d565b9150509295509295509295565b600062000699620006ac565b9050620006a78282620007ed565b919050565b6000604051905090565b600067ffffffffffffffff821115620006d457620006d362000852565b5b602082029050919050565b600067ffffffffffffffff821115620006fd57620006fc62000852565b5b62000708826200089a565b9050602081019050919050565b6000620007228262000733565b9050919050565b6000819050919050565b600073ffffffffffffffffffffffffffffffffffffffff82169050919050565b6000819050919050565b600063ffffffff82169050919050565b600067ffffffffffffffff82169050919050565b60005b83811015620007a157808201518184015260208101905062000784565b83811115620007b1576000848401525b50505050565b60006002820490506001821680620007d057607f821691505b60208210811415620007e757620007e662000823565b5b50919050565b620007f8826200089a565b810181811067ffffffffffffffff821117156200081a576200081962000852565b5b80604052505050565b7f4e487b7100000000000000000000000000000000000000000000000000000000600052602260045260246000fd5b7f4e487b7100000000000000000000000000000000000000000000000000000000600052604160045260246000fd5b600080fd5b600080fd5b600080fd5b600080fd5b600080fd5b6000601f19601f8301169050919050565b620008b68162000715565b8114620008c257600080fd5b50565b620008d08162000729565b8114620008dc57600080fd5b50565b620008ea8162000753565b8114620008f657600080fd5b50565b62000904816200075d565b81146200091057600080fd5b50565b6200091e816200076d565b81146200092a57600080fd5b50565b60805160601c60a05160c01c60c05160601c60e0516101005160e01c610120516139fe6200099760003960008181610d5e0152610e5801526000610f3201526000610eee01526000610eb201526000610f0f0152600081816108c7015261091b01526139fe6000f3fe6080604052600436106101665760003560e01c806370a08231116100d1578063a22cb4651161008a578063c87b56dd11610064578063c87b56dd1461050b578063e37bbc5e14610548578063e985e9c514610585578063f2fde38b146105c257610166565b8063a22cb4651461049b578063aa152491146104c4578063b88d4fde146104e257610166565b806370a0823114610389578063715018a6146103c6578063741a63fa146103dd5780637a5caab31461041a5780638da5cb5b1461044557806395d89b411461047057610166565b806323b872dd1161012357806323b872dd1461028d5780633ccfd60b146102b657806342842e0e146102cd5780635dacf5f4146102f65780636352211e146103215780636e02007d1461035e57610166565b806301ffc9a71461016b57806306fdde03146101a8578063081812fc146101d3578063095ea7b31461021057806312065fe0146102395780631fe543e314610264575b600080fd5b34801561017757600080fd5b50610192600480360381019061018d919061281c565b6105eb565b60405161019f9190612dd9565b60405180910390f35b3480156101b457600080fd5b506101bd6106cd565b6040516101ca9190612e8b565b60405180910390f35b3480156101df57600080fd5b506101fa60048036038101906101f59190612876565b61075f565b6040516102079190612d2e565b60405180910390f35b34801561021c57600080fd5b50610237600480360381019061023291906127dc565b6107a5565b005b34801561024557600080fd5b5061024e6108bd565b60405161025b919061308d565b60405180910390f35b34801561027057600080fd5b5061028b600480360381019061028691906128d0565b6108c5565b005b34801561029957600080fd5b506102b460048036038101906102af91906126c6565b610985565b005b3480156102c257600080fd5b506102cb6109e5565b005b3480156102d957600080fd5b506102f460048036038101906102ef91906126c6565b610a99565b005b34801561030257600080fd5b5061030b610ab9565b6040516103189190612dbe565b60405180910390f35b34801561032d57600080fd5b5061034860048036038101906103439190612876565b610ae4565b6040516103559190612d2e565b60405180910390f35b34801561036a57600080fd5b50610373610b96565b604051610380919061308d565b60405180910390f35b34801561039557600080fd5b506103b060048036038101906103ab9190612659565b610ba0565b6040516103bd919061308d565b60405180910390f35b3480156103d257600080fd5b506103db610c58565b005b3480156103e957600080fd5b5061040460048036038101906103ff9190612876565b610c6c565b6040516104119190612e8b565b60405180910390f35b34801561042657600080fd5b5061042f610d5a565b60405161043c919061308d565b60405180910390f35b34801561045157600080fd5b5061045a610d82565b6040516104679190612d2e565b60405180910390f35b34801561047c57600080fd5b50610485610dac565b6040516104929190612e8b565b60405180910390f35b3480156104a757600080fd5b506104c260048036038101906104bd919061279c565b610e3e565b005b6104cc610e54565b6040516104d9919061308d565b60405180910390f35b3480156104ee57600080fd5b5061050960048036038101906105049190612719565b611054565b005b34801561051757600080fd5b50610532600480360381019061052d9190612876565b6110b6565b60405161053f9190612e8b565b60405180910390f35b34801561055457600080fd5b5061056f600480360381019061056a9190612876565b6111c9565b60405161057c9190612e47565b60405180910390f35b34801561059157600080fd5b506105ac60048036038101906105a79190612686565b6112a1565b6040516105b99190612dd9565b60405180910390f35b3480156105ce57600080fd5b506105e960048036038101906105e49190612659565b611335565b005b60007f80ac58cd000000000000000000000000000000000000000000000000000000007bffffffffffffffffffffffffffffffffffffffffffffffffffffffff1916827bffffffffffffffffffffffffffffffffffffffffffffffffffffffff191614806106b657507f5b5e139f000000000000000000000000000000000000000000000000000000007bffffffffffffffffffffffffffffffffffffffffffffffffffffffff1916827bffffffffffffffffffffffffffffffffffffffffffffffffffffffff1916145b806106c657506106c5826113b9565b5b9050919050565b6060600080546106dc90613377565b80601f016020809104026020016040519081016040528092919081815260200182805461070890613377565b80156107555780601f1061072a57610100808354040283529160200191610755565b820191906000526020600020905b81548152906001019060200180831161073857829003601f168201915b5050505050905090565b600061076a82611423565b6004600083815260200190815260200160002060009054906101000a900473ffffffffffffffffffffffffffffffffffffffff169050919050565b60006107b082610ae4565b90508073ffffffffffffffffffffffffffffffffffffffff168373ffffffffffffffffffffffffffffffffffffffff161415610821576040517f08c379a00000000000000000000000000000000000000000000000000000000081526004016108189061302d565b60405180910390fd5b8073ffffffffffffffffffffffffffffffffffffffff1661084061146e565b73ffffffffffffffffffffffffffffffffffffffff16148061086f575061086e8161086961146e565b6112a1565b5b6108ae576040517f08c379a00000000000000000000000000000000000000000000000000000000081526004016108a590612fad565b60405180910390fd5b6108b88383611476565b505050565b600047905090565b7f000000000000000000000000000000000000000000000000000000000000000073ffffffffffffffffffffffffffffffffffffffff163373ffffffffffffffffffffffffffffffffffffffff161461097757337f00000000000000000000000000000000000000000000000000000000000000006040517f1cf993f400000000000000000000000000000000000000000000000000000000815260040161096e929190612d49565b60405180910390fd5b610981828261152f565b5050565b61099661099061146e565b82611728565b6109d5576040517f08c379a00000000000000000000000000000000000000000000000000000000081526004016109cc9061304d565b60405180910390fd5b6109e08383836117bd565b505050565b6109ed611a24565b600047905060003373ffffffffffffffffffffffffffffffffffffffff1682604051610a1890612d19565b60006040518083038185875af1925050503d8060008114610a55576040519150601f19603f3d011682016040523d82523d6000602084013e610a5a565b606091505b5050905080610a95576040517fca7e25b700000000000000000000000000000000000000000000000000000000815260040160405180910390fd5b5050565b610ab483838360405180602001604052806000815250611054565b505050565b610ac1612408565b6040518060600160405280600a8152602001601e81526020016064815250905090565b6000806002600084815260200190815260200160002060009054906101000a900473ffffffffffffffffffffffffffffffffffffffff169050600073ffffffffffffffffffffffffffffffffffffffff168173ffffffffffffffffffffffffffffffffffffffff161415610b8d576040517f08c379a0000000000000000000000000000000000000000000000000000000008152600401610b849061300d565b60405180910390fd5b80915050919050565b6000600954905090565b60008073ffffffffffffffffffffffffffffffffffffffff168273ffffffffffffffffffffffffffffffffffffffff161415610c11576040517f08c379a0000000000000000000000000000000000000000000000000000000008152600401610c0890612f6d565b60405180910390fd5b600360008373ffffffffffffffffffffffffffffffffffffffff1673ffffffffffffffffffffffffffffffffffffffff168152602001908152602001600020549050919050565b610c60611a24565b610c6a6000611aa2565b565b60606000821080610c7e575060038210155b15610cb5576040517f12806c9d00000000000000000000000000000000000000000000000000000000815260040160405180910390fd5b600a8260038110610cc957610cc8613510565b5b018054610cd590613377565b80601f0160208091040260200160405190810160405280929190818152602001828054610d0190613377565b8015610d4e5780601f10610d2357610100808354040283529160200191610d4e565b820191906000526020600020905b815481529060010190602001808311610d3157829003601f168201915b50505050509050919050565b60007f0000000000000000000000000000000000000000000000000000000000000000905090565b6000600760009054906101000a900473ffffffffffffffffffffffffffffffffffffffff16905090565b606060018054610dbb90613377565b80601f0160208091040260200160405190810160405280929190818152602001828054610de790613377565b8015610e345780601f10610e0957610100808354040283529160200191610e34565b820191906000526020600020905b815481529060010190602001808311610e1757829003601f168201915b5050505050905090565b610e50610e4961146e565b8383611b68565b5050565b60007f0000000000000000000000000000000000000000000000000000000000000000341015610eb0576040517f3964ba4b00000000000000000000000000000000000000000000000000000000815260040160405180910390fd5b7f000000000000000000000000000000000000000000000000000000000000000073ffffffffffffffffffffffffffffffffffffffff16635d3b1d307f00000000000000000000000000000000000000000000000000000000000000007f000000000000000000000000000000000000000000000000000000000000000060057f000000000000000000000000000000000000000000000000000000000000000060016040518663ffffffff1660e01b8152600401610f73959493929190612df4565b602060405180830381600087803b158015610f8d57600080fd5b505af1158015610fa1573d6000803e3d6000fd5b505050506040513d601f19601f82011682018060405250810190610fc591906128a3565b9050336008600083815260200190815260200160002060006101000a81548173ffffffffffffffffffffffffffffffffffffffff021916908373ffffffffffffffffffffffffffffffffffffffff160217905550807ff873236e6cc0ecc5be1a9a35c95ee5b8d1ac4cc7bfef0cc5060391d6cc98e26b336040516110499190612d2e565b60405180910390a290565b61106561105f61146e565b83611728565b6110a4576040517f08c379a000000000000000000000000000000000000000000000000000000000815260040161109b9061304d565b60405180910390fd5b6110b084848484611cd5565b50505050565b60606110c182611423565b60006006600084815260200190815260200160002080546110e190613377565b80601f016020809104026020016040519081016040528092919081815260200182805461110d90613377565b801561115a5780601f1061112f5761010080835404028352916020019161115a565b820191906000526020600020905b81548152906001019060200180831161113d57829003601f168201915b50505050509050600061116b611d31565b90506000815114156111815781925050506111c4565b6000825111156111b657808260405160200161119e929190612cf5565b604051602081830303815290604052925050506111c4565b6111bf84611d48565b925050505b919050565b6000806000905060006111da610ab9565b905060008414156111ea57600193505b60005b600381101561126957828511801561121c575081816003811061121357611212613510565b5b60200201518511155b1561123e57806002811115611234576112336134b2565b5b935050505061129c565b81816003811061125157611250613510565b5b6020020151925080611262906133da565b90506111ed565b506040517f12806c9d00000000000000000000000000000000000000000000000000000000815260040160405180910390fd5b919050565b6000600560008473ffffffffffffffffffffffffffffffffffffffff1673ffffffffffffffffffffffffffffffffffffffff16815260200190815260200160002060008373ffffffffffffffffffffffffffffffffffffffff1673ffffffffffffffffffffffffffffffffffffffff16815260200190815260200160002060009054906101000a900460ff16905092915050565b61133d611a24565b600073ffffffffffffffffffffffffffffffffffffffff168173ffffffffffffffffffffffffffffffffffffffff1614156113ad576040517f08c379a00000000000000000000000000000000000000000000000000000000081526004016113a490612ecd565b60405180910390fd5b6113b681611aa2565b50565b60007f01ffc9a7000000000000000000000000000000000000000000000000000000007bffffffffffffffffffffffffffffffffffffffffffffffffffffffff1916827bffffffffffffffffffffffffffffffffffffffffffffffffffffffff1916149050919050565b61142c81611db0565b61146b576040517f08c379a00000000000000000000000000000000000000000000000000000000081526004016114629061300d565b60405180910390fd5b50565b600033905090565b816004600083815260200190815260200160002060006101000a81548173ffffffffffffffffffffffffffffffffffffffff021916908373ffffffffffffffffffffffffffffffffffffffff160217905550808273ffffffffffffffffffffffffffffffffffffffff166114e983610ae4565b73ffffffffffffffffffffffffffffffffffffffff167f8c5be1e5ebec7d5bd14f71427d1e84f3dd0314c0f7b2291e5b200ac8c7c3b92560405160405180910390a45050565b60006008600084815260200190815260200160002060009054906101000a900473ffffffffffffffffffffffffffffffffffffffff169050600073ffffffffffffffffffffffffffffffffffffffff168173ffffffffffffffffffffffffffffffffffffffff1614156115d7576040517f08c379a00000000000000000000000000000000000000000000000000000000081526004016115ce9061306d565b60405180910390fd5b600060095490506001816115eb91906131a5565b600981905550600061162360648560008151811061160c5761160b613510565b5b602002602001015161161e9190613423565b6111c9565b905061162f8383611e1c565b6116e882600a836002811115611648576116476134b2565b5b6003811061165957611658613510565b5b01805461166590613377565b80601f016020809104026020016040519081016040528092919081815260200182805461169190613377565b80156116de5780601f106116b3576101008083540402835291602001916116de565b820191906000526020600020905b8154815290600101906020018083116116c157829003601f168201915b5050505050611e3a565b7f8a269f26b688e110e9cbd887d163dab35cae678fa353a0292de532c0cac1ecdc8184604051611719929190612e62565b60405180910390a15050505050565b60008061173483610ae4565b90508073ffffffffffffffffffffffffffffffffffffffff168473ffffffffffffffffffffffffffffffffffffffff161480611776575061177581856112a1565b5b806117b457508373ffffffffffffffffffffffffffffffffffffffff1661179c8461075f565b73ffffffffffffffffffffffffffffffffffffffff16145b91505092915050565b8273ffffffffffffffffffffffffffffffffffffffff166117dd82610ae4565b73ffffffffffffffffffffffffffffffffffffffff1614611833576040517f08c379a000000000000000000000000000000000000000000000000000000000815260040161182a90612eed565b60405180910390fd5b600073ffffffffffffffffffffffffffffffffffffffff168273ffffffffffffffffffffffffffffffffffffffff1614156118a3576040517f08c379a000000000000000000000000000000000000000000000000000000000815260040161189a90612f2d565b60405180910390fd5b6118ae838383611eae565b6118b9600082611476565b6001600360008573ffffffffffffffffffffffffffffffffffffffff1673ffffffffffffffffffffffffffffffffffffffff1681526020019081526020016000206000828254611909919061322c565b925050819055506001600360008473ffffffffffffffffffffffffffffffffffffffff1673ffffffffffffffffffffffffffffffffffffffff168152602001908152602001600020600082825461196091906131a5565b92505081905550816002600083815260200190815260200160002060006101000a81548173ffffffffffffffffffffffffffffffffffffffff021916908373ffffffffffffffffffffffffffffffffffffffff160217905550808273ffffffffffffffffffffffffffffffffffffffff168473ffffffffffffffffffffffffffffffffffffffff167fddf252ad1be2c89b69c2b068fc378daa952ba7f163c4a11628f55a4df523b3ef60405160405180910390a4611a1f838383611eb3565b505050565b611a2c61146e565b73ffffffffffffffffffffffffffffffffffffffff16611a4a610d82565b73ffffffffffffffffffffffffffffffffffffffff1614611aa0576040517f08c379a0000000000000000000000000000000000000000000000000000000008152600401611a9790612fed565b60405180910390fd5b565b6000600760009054906101000a900473ffffffffffffffffffffffffffffffffffffffff16905081600760006101000a81548173ffffffffffffffffffffffffffffffffffffffff021916908373ffffffffffffffffffffffffffffffffffffffff1602179055508173ffffffffffffffffffffffffffffffffffffffff168173ffffffffffffffffffffffffffffffffffffffff167f8be0079c531659141344cd1fd0a4f28419497f9722a3daafe3b4186f6b6457e060405160405180910390a35050565b8173ffffffffffffffffffffffffffffffffffffffff168373ffffffffffffffffffffffffffffffffffffffff161415611bd7576040517f08c379a0000000000000000000000000000000000000000000000000000000008152600401611bce90612f4d565b60405180910390fd5b80600560008573ffffffffffffffffffffffffffffffffffffffff1673ffffffffffffffffffffffffffffffffffffffff16815260200190815260200160002060008473ffffffffffffffffffffffffffffffffffffffff1673ffffffffffffffffffffffffffffffffffffffff16815260200190815260200160002060006101000a81548160ff0219169083151502179055508173ffffffffffffffffffffffffffffffffffffffff168373ffffffffffffffffffffffffffffffffffffffff167f17307eab39ab6107e8899845ad3d59bd9653f200f220920489ca2b5937696c3183604051611cc89190612dd9565b60405180910390a3505050565b611ce08484846117bd565b611cec84848484611eb8565b611d2b576040517f08c379a0000000000000000000000000000000000000000000000000000000008152600401611d2290612ead565b60405180910390fd5b50505050565b606060405180602001604052806000815250905090565b6060611d5382611423565b6000611d5d611d31565b90506000815111611d7d5760405180602001604052806000815250611da8565b80611d878461204f565b604051602001611d98929190612cf5565b6040516020818303038152906040525b915050919050565b60008073ffffffffffffffffffffffffffffffffffffffff166002600084815260200190815260200160002060009054906101000a900473ffffffffffffffffffffffffffffffffffffffff1673ffffffffffffffffffffffffffffffffffffffff1614159050919050565b611e368282604051806020016040528060008152506121b0565b5050565b611e4382611db0565b611e82576040517f08c379a0000000000000000000000000000000000000000000000000000000008152600401611e7990612f8d565b60405180910390fd5b80600660008481526020019081526020016000209080519060200190611ea992919061242a565b505050565b505050565b505050565b6000611ed98473ffffffffffffffffffffffffffffffffffffffff1661220b565b15612042578373ffffffffffffffffffffffffffffffffffffffff1663150b7a02611f0261146e565b8786866040518563ffffffff1660e01b8152600401611f249493929190612d72565b602060405180830381600087803b158015611f3e57600080fd5b505af1925050508015611f6f57506040513d601f19601f82011682018060405250810190611f6c9190612849565b60015b611ff2573d8060008114611f9f576040519150601f19603f3d011682016040523d82523d6000602084013e611fa4565b606091505b50600081511415611fea576040517f08c379a0000000000000000000000000000000000000000000000000000000008152600401611fe190612ead565b60405180910390fd5b805181602001fd5b63150b7a0260e01b7bffffffffffffffffffffffffffffffffffffffffffffffffffffffff1916817bffffffffffffffffffffffffffffffffffffffffffffffffffffffff191614915050612047565b600190505b949350505050565b60606000821415612097576040518060400160405280600181526020017f300000000000000000000000000000000000000000000000000000000000000081525090506121ab565b600082905060005b600082146120c95780806120b2906133da565b915050600a826120c291906131fb565b915061209f565b60008167ffffffffffffffff8111156120e5576120e461353f565b5b6040519080825280601f01601f1916602001820160405280156121175781602001600182028036833780820191505090505b5090505b600085146121a457600182612130919061322c565b9150600a8561213f9190613423565b603061214b91906131a5565b60f81b81838151811061216157612160613510565b5b60200101907effffffffffffffffffffffffffffffffffffffffffffffffffffffffffffff1916908160001a905350600a8561219d91906131fb565b945061211b565b8093505050505b919050565b6121ba838361222e565b6121c76000848484611eb8565b612206576040517f08c379a00000000000000000000000000000000000000000000000000000000081526004016121fd90612ead565b60405180910390fd5b505050565b6000808273ffffffffffffffffffffffffffffffffffffffff163b119050919050565b600073ffffffffffffffffffffffffffffffffffffffff168273ffffffffffffffffffffffffffffffffffffffff16141561229e576040517f08c379a000000000000000000000000000000000000000000000000000000000815260040161229590612fcd565b60405180910390fd5b6122a781611db0565b156122e7576040517f08c379a00000000000000000000000000000000000000000000000000000000081526004016122de90612f0d565b60405180910390fd5b6122f360008383611eae565b6001600360008473ffffffffffffffffffffffffffffffffffffffff1673ffffffffffffffffffffffffffffffffffffffff168152602001908152602001600020600082825461234391906131a5565b92505081905550816002600083815260200190815260200160002060006101000a81548173ffffffffffffffffffffffffffffffffffffffff021916908373ffffffffffffffffffffffffffffffffffffffff160217905550808273ffffffffffffffffffffffffffffffffffffffff16600073ffffffffffffffffffffffffffffffffffffffff167fddf252ad1be2c89b69c2b068fc378daa952ba7f163c4a11628f55a4df523b3ef60405160405180910390a461240460008383611eb3565b5050565b6040518060600160405280600390602082028036833780820191505090505090565b82805461243690613377565b90600052602060002090601f016020900481019282612458576000855561249f565b82601f1061247157805160ff191683800117855561249f565b8280016001018555821561249f579182015b8281111561249e578251825591602001919060010190612483565b5b5090506124ac91906124b0565b5090565b5b808211156124c95760008160009055506001016124b1565b5090565b60006124e06124db846130cd565b6130a8565b9050808382526020820190508285602086028201111561250357612502613573565b5b60005b858110156125335781612519888261262f565b845260208401935060208301925050600181019050612506565b5050509392505050565b600061255061254b846130f9565b6130a8565b90508281526020810184848401111561256c5761256b613578565b5b612577848285613335565b509392505050565b60008135905061258e8161396c565b92915050565b600082601f8301126125a9576125a861356e565b5b81356125b98482602086016124cd565b91505092915050565b6000813590506125d181613983565b92915050565b6000813590506125e68161399a565b92915050565b6000815190506125fb8161399a565b92915050565b600082601f8301126126165761261561356e565b5b813561262684826020860161253d565b91505092915050565b60008135905061263e816139b1565b92915050565b600081519050612653816139b1565b92915050565b60006020828403121561266f5761266e613582565b5b600061267d8482850161257f565b91505092915050565b6000806040838503121561269d5761269c613582565b5b60006126ab8582860161257f565b92505060206126bc8582860161257f565b9150509250929050565b6000806000606084860312156126df576126de613582565b5b60006126ed8682870161257f565b93505060206126fe8682870161257f565b925050604061270f8682870161262f565b9150509250925092565b6000806000806080858703121561273357612732613582565b5b60006127418782880161257f565b94505060206127528782880161257f565b93505060406127638782880161262f565b925050606085013567ffffffffffffffff8111156127845761278361357d565b5b61279087828801612601565b91505092959194509250565b600080604083850312156127b3576127b2613582565b5b60006127c18582860161257f565b92505060206127d2858286016125c2565b9150509250929050565b600080604083850312156127f3576127f2613582565b5b60006128018582860161257f565b92505060206128128582860161262f565b9150509250929050565b60006020828403121561283257612831613582565b5b6000612840848285016125d7565b91505092915050565b60006020828403121561285f5761285e613582565b5b600061286d848285016125ec565b91505092915050565b60006020828403121561288c5761288b613582565b5b600061289a8482850161262f565b91505092915050565b6000602082840312156128b9576128b8613582565b5b60006128c784828501612644565b91505092915050565b600080604083850312156128e7576128e6613582565b5b60006128f58582860161262f565b925050602083013567ffffffffffffffff8111156129165761291561357d565b5b61292285828601612594565b9150509250929050565b60006129388383612cb9565b60208301905092915050565b61294d81613260565b82525050565b61295c81613134565b6129668184613162565b92506129718261312a565b8060005b838110156129a2578151612989878261292c565b965061299483613155565b925050600181019050612975565b505050505050565b6129b381613272565b82525050565b6129c28161327e565b82525050565b60006129d38261313f565b6129dd818561316d565b93506129ed818560208601613344565b6129f681613587565b840191505092915050565b612a0a81613323565b82525050565b6000612a1b8261314a565b612a258185613189565b9350612a35818560208601613344565b612a3e81613587565b840191505092915050565b6000612a548261314a565b612a5e818561319a565b9350612a6e818560208601613344565b80840191505092915050565b6000612a87603283613189565b9150612a9282613598565b604082019050919050565b6000612aaa602683613189565b9150612ab5826135e7565b604082019050919050565b6000612acd602583613189565b9150612ad882613636565b604082019050919050565b6000612af0601c83613189565b9150612afb82613685565b602082019050919050565b6000612b13602483613189565b9150612b1e826136ae565b604082019050919050565b6000612b36601983613189565b9150612b41826136fd565b602082019050919050565b6000612b59602983613189565b9150612b6482613726565b604082019050919050565b6000612b7c602e83613189565b9150612b8782613775565b604082019050919050565b6000612b9f603e83613189565b9150612baa826137c4565b604082019050919050565b6000612bc2602083613189565b9150612bcd82613813565b602082019050919050565b6000612be5602083613189565b9150612bf08261383c565b602082019050919050565b6000612c08601883613189565b9150612c1382613865565b602082019050919050565b6000612c2b602183613189565b9150612c368261388e565b604082019050919050565b6000612c4e60008361317e565b9150612c59826138dd565b600082019050919050565b6000612c71602e83613189565b9150612c7c826138e0565b604082019050919050565b6000612c94601283613189565b9150612c9f8261392f565b602082019050919050565b612cb3816132c7565b82525050565b612cc2816132f5565b82525050565b612cd1816132f5565b82525050565b612ce0816132ff565b82525050565b612cef8161330f565b82525050565b6000612d018285612a49565b9150612d0d8284612a49565b91508190509392505050565b6000612d2482612c41565b9150819050919050565b6000602082019050612d436000830184612944565b92915050565b6000604082019050612d5e6000830185612944565b612d6b6020830184612944565b9392505050565b6000608082019050612d876000830187612944565b612d946020830186612944565b612da16040830185612cc8565b8181036060830152612db381846129c8565b905095945050505050565b6000606082019050612dd36000830184612953565b92915050565b6000602082019050612dee60008301846129aa565b92915050565b600060a082019050612e0960008301886129b9565b612e166020830187612ce6565b612e236040830186612caa565b612e306060830185612cd7565b612e3d6080830184612cd7565b9695505050505050565b6000602082019050612e5c6000830184612a01565b92915050565b6000604082019050612e776000830185612a01565b612e846020830184612944565b9392505050565b60006020820190508181036000830152612ea58184612a10565b905092915050565b60006020820190508181036000830152612ec681612a7a565b9050919050565b60006020820190508181036000830152612ee681612a9d565b9050919050565b60006020820190508181036000830152612f0681612ac0565b9050919050565b60006020820190508181036000830152612f2681612ae3565b9050919050565b60006020820190508181036000830152612f4681612b06565b9050919050565b60006020820190508181036000830152612f6681612b29565b9050919050565b60006020820190508181036000830152612f8681612b4c565b9050919050565b60006020820190508181036000830152612fa681612b6f565b9050919050565b60006020820190508181036000830152612fc681612b92565b9050919050565b60006020820190508181036000830152612fe681612bb5565b9050919050565b6000602082019050818103600083015261300681612bd8565b9050919050565b6000602082019050818103600083015261302681612bfb565b9050919050565b6000602082019050818103600083015261304681612c1e565b9050919050565b6000602082019050818103600083015261306681612c64565b9050919050565b6000602082019050818103600083015261308681612c87565b9050919050565b60006020820190506130a26000830184612cc8565b92915050565b60006130b26130c3565b90506130be82826133a9565b919050565b6000604051905090565b600067ffffffffffffffff8211156130e8576130e761353f565b5b602082029050602081019050919050565b600067ffffffffffffffff8211156131145761311361353f565b5b61311d82613587565b9050602081019050919050565b6000819050919050565b600060039050919050565b600081519050919050565b600081519050919050565b6000602082019050919050565b600081905092915050565b600082825260208201905092915050565b600081905092915050565b600082825260208201905092915050565b600081905092915050565b60006131b0826132f5565b91506131bb836132f5565b9250827fffffffffffffffffffffffffffffffffffffffffffffffffffffffffffffffff038211156131f0576131ef613454565b5b828201905092915050565b6000613206826132f5565b9150613211836132f5565b92508261322157613220613483565b5b828204905092915050565b6000613237826132f5565b9150613242836132f5565b92508282101561325557613254613454565b5b828203905092915050565b600061326b826132d5565b9050919050565b60008115159050919050565b6000819050919050565b60007fffffffff0000000000000000000000000000000000000000000000000000000082169050919050565b60008190506132c282613958565b919050565b600061ffff82169050919050565b600073ffffffffffffffffffffffffffffffffffffffff82169050919050565b6000819050919050565b600063ffffffff82169050919050565b600067ffffffffffffffff82169050919050565b600061332e826132b4565b9050919050565b82818337600083830152505050565b60005b83811015613362578082015181840152602081019050613347565b83811115613371576000848401525b50505050565b6000600282049050600182168061338f57607f821691505b602082108114156133a3576133a26134e1565b5b50919050565b6133b282613587565b810181811067ffffffffffffffff821117156133d1576133d061353f565b5b80604052505050565b60006133e5826132f5565b91507fffffffffffffffffffffffffffffffffffffffffffffffffffffffffffffffff82141561341857613417613454565b5b600182019050919050565b600061342e826132f5565b9150613439836132f5565b92508261344957613448613483565b5b828206905092915050565b7f4e487b7100000000000000000000000000000000000000000000000000000000600052601160045260246000fd5b7f4e487b7100000000000000000000000000000000000000000000000000000000600052601260045260246000fd5b7f4e487b7100000000000000000000000000000000000000000000000000000000600052602160045260246000fd5b7f4e487b7100000000000000000000000000000000000000000000000000000000600052602260045260246000fd5b7f4e487b7100000000000000000000000000000000000000000000000000000000600052603260045260246000fd5b7f4e487b7100000000000000000000000000000000000000000000000000000000600052604160045260246000fd5b600080fd5b600080fd5b600080fd5b600080fd5b600080fd5b6000601f19601f8301169050919050565b7f4552433732313a207472616e7366657220746f206e6f6e20455243373231526560008201527f63656976657220696d706c656d656e7465720000000000000000000000000000602082015250565b7f4f776e61626c653a206e6577206f776e657220697320746865207a65726f206160008201527f6464726573730000000000000000000000000000000000000000000000000000602082015250565b7f4552433732313a207472616e736665722066726f6d20696e636f72726563742060008201527f6f776e6572000000000000000000000000000000000000000000000000000000602082015250565b7f4552433732313a20746f6b656e20616c7265616479206d696e74656400000000600082015250565b7f4552433732313a207472616e7366657220746f20746865207a65726f2061646460008201527f7265737300000000000000000000000000000000000000000000000000000000602082015250565b7f4552433732313a20617070726f766520746f2063616c6c657200000000000000600082015250565b7f4552433732313a2061646472657373207a65726f206973206e6f74206120766160008201527f6c6964206f776e65720000000000000000000000000000000000000000000000602082015250565b7f45524337323155524953746f726167653a2055524920736574206f66206e6f6e60008201527f6578697374656e7420746f6b656e000000000000000000000000000000000000602082015250565b7f4552433732313a20617070726f76652063616c6c6572206973206e6f7420746f60008201527f6b656e206f776e6572206e6f7220617070726f76656420666f7220616c6c0000602082015250565b7f4552433732313a206d696e7420746f20746865207a65726f2061646472657373600082015250565b7f4f776e61626c653a2063616c6c6572206973206e6f7420746865206f776e6572600082015250565b7f4552433732313a20696e76616c696420746f6b656e2049440000000000000000600082015250565b7f4552433732313a20617070726f76616c20746f2063757272656e74206f776e6560008201527f7200000000000000000000000000000000000000000000000000000000000000602082015250565b50565b7f4552433732313a2063616c6c6572206973206e6f7420746f6b656e206f776e6560008201527f72206e6f7220617070726f766564000000000000000000000000000000000000602082015250565b7f496e76616c696420526571756573742049640000000000000000000000000000600082015250565b60038110613969576139686134b2565b5b50565b61397581613260565b811461398057600080fd5b50565b61398c81613272565b811461399757600080fd5b50565b6139a381613288565b81146139ae57600080fd5b50565b6139ba816132f5565b81146139c557600080fd5b5056fea26469706673582212204cc1bc84983a83aac09da8eb41abc11101c02050b8b66488b8ecbb4b3e7337c264736f6c63430008070033",
  "devdoc": {
    "kind": "dev",
    "methods": {
      "approve(address,uint256)": {
        "details": "See {IERC721-approve}."
      },
      "balanceOf(address)": {
        "details": "See {IERC721-balanceOf}."
      },
      "getApproved(uint256)": {
        "details": "See {IERC721-getApproved}."
      },
      "getChanceArray()": {
        "details": "value[0] means chance of rarest nft, if value is between 0 - 10 value[1] means chance of rare nft, if value is between 11 - 30 value[2] means chance of common nft, if value is between 31 - MAX_CHANCE i.e 31 - 100 "
      },
      "isApprovedForAll(address,address)": {
        "details": "See {IERC721-isApprovedForAll}."
      },
      "name()": {
        "details": "See {IERC721Metadata-name}."
      },
      "owner()": {
        "details": "Returns the address of the current owner."
      },
      "ownerOf(uint256)": {
        "details": "See {IERC721-ownerOf}."
      },
      "renounceOwnership()": {
        "details": "Leaves the contract without owner. It will not be possible to call `onlyOwner` functions anymore. Can only be called by the current owner. NOTE: Renouncing ownership will leave the contract without an owner, thereby removing any functionality that is only available to the owner."
      },
      "safeTransferFrom(address,address,uint256)": {
        "details": "See {IERC721-safeTransferFrom}."
      },
      "safeTransferFrom(address,address,uint256,bytes)": {
        "details": "See {IERC721-safeTransferFrom}."
      },
      "setApprovalForAll(address,bool)": {
        "details": "See {IERC721-setApprovalForAll}."
      },
      "supportsInterface(bytes4)": {
        "details": "See {IERC165-supportsInterface}."
      },
      "symbol()": {
        "details": "See {IERC721Metadata-symbol}."
      },
      "tokenURI(uint256)": {
        "details": "See {IERC721Metadata-tokenURI}."
      },
      "transferFrom(address,address,uint256)": {
        "details": "See {IERC721-transferFrom}."
      },
      "transferOwnership(address)": {
        "details": "Transfers ownership of the contract to a new account (`newOwner`). Can only be called by the current owner."
      }
    },
    "version": 1
  },
  "userdoc": {
    "errors": {
      "RandomIpfsNft__RangeOutOfBounds()": [
        {
          "notice": "This contract uses randrom numbers to generate random NFTs  using that random number, we'll get random NFT There will be three types of NFTs, i.e     Pug super rare    Shiba sort of rare    St. bernard commonUsers have to pay ETH to mint NFT, to pay artists, the owner can withdraw payments."
        }
      ]
    },
    "kind": "user",
    "methods": {
      "getBreed(uint256)": {
        "notice": "If number is between 0 - 10 (both included), Breed(0) is returned if number is between 11 - 30 (both included), Breed(1) is returned if number is between 31 - 100 (both included), Breed(2) is returned"
      }
    },
    "version": 1
  },
  "storageLayout": {
    "storage": [
      {
        "astId": 1005,
        "contract": "contracts/RandomIpfsNft.sol:RandomIpfsNft",
        "label": "_name",
        "offset": 0,
        "slot": "0",
        "type": "t_string_storage"
      },
      {
        "astId": 1007,
        "contract": "contracts/RandomIpfsNft.sol:RandomIpfsNft",
        "label": "_symbol",
        "offset": 0,
        "slot": "1",
        "type": "t_string_storage"
      },
      {
        "astId": 1011,
        "contract": "contracts/RandomIpfsNft.sol:RandomIpfsNft",
        "label": "_owners",
        "offset": 0,
        "slot": "2",
        "type": "t_mapping(t_uint256,t_address)"
      },
      {
        "astId": 1015,
        "contract": "contracts/RandomIpfsNft.sol:RandomIpfsNft",
        "label": "_balances",
        "offset": 0,
        "slot": "3",
        "type": "t_mapping(t_address,t_uint256)"
      },
      {
        "astId": 1019,
        "contract": "contracts/RandomIpfsNft.sol:RandomIpfsNft",
        "label": "_tokenApprovals",
        "offset": 0,
        "slot": "4",
        "type": "t_mapping(t_uint256,t_address)"
      },
      {
        "astId": 1025,
        "contract": "contracts/RandomIpfsNft.sol:RandomIpfsNft",
        "label": "_operatorApprovals",
        "offset": 0,
        "slot": "5",
        "type": "t_mapping(t_address,t_mapping(t_address,t_bool))"
      },
      {
        "astId": 1993,
        "contract": "contracts/RandomIpfsNft.sol:RandomIpfsNft",
        "label": "_tokenURIs",
        "offset": 0,
        "slot": "6",
        "type": "t_mapping(t_uint256,t_string_storage)"
      },
      {
        "astId": 874,
        "contract": "contracts/RandomIpfsNft.sol:RandomIpfsNft",
        "label": "_owner",
        "offset": 0,
        "slot": "7",
        "type": "t_address"
      },
      {
        "astId": 3227,
        "contract": "contracts/RandomIpfsNft.sol:RandomIpfsNft",
        "label": "s_requestToSender",
        "offset": 0,
        "slot": "8",
        "type": "t_mapping(t_uint256,t_address)"
      },
      {
        "astId": 3233,
        "contract": "contracts/RandomIpfsNft.sol:RandomIpfsNft",
        "label": "s_TokenCounter",
        "offset": 0,
        "slot": "9",
        "type": "t_uint256"
      },
      {
        "astId": 3240,
        "contract": "contracts/RandomIpfsNft.sol:RandomIpfsNft",
        "label": "s_dogTokenUri",
        "offset": 0,
        "slot": "10",
        "type": "t_array(t_string_storage)3_storage"
      }
    ],
    "types": {
      "t_address": {
        "encoding": "inplace",
        "label": "address",
        "numberOfBytes": "20"
      },
      "t_array(t_string_storage)3_storage": {
        "base": "t_string_storage",
        "encoding": "inplace",
        "label": "string[3]",
        "numberOfBytes": "96"
      },
      "t_bool": {
        "encoding": "inplace",
        "label": "bool",
        "numberOfBytes": "1"
      },
      "t_mapping(t_address,t_bool)": {
        "encoding": "mapping",
        "key": "t_address",
        "label": "mapping(address => bool)",
        "numberOfBytes": "32",
        "value": "t_bool"
      },
      "t_mapping(t_address,t_mapping(t_address,t_bool))": {
        "encoding": "mapping",
        "key": "t_address",
        "label": "mapping(address => mapping(address => bool))",
        "numberOfBytes": "32",
        "value": "t_mapping(t_address,t_bool)"
      },
      "t_mapping(t_address,t_uint256)": {
        "encoding": "mapping",
        "key": "t_address",
        "label": "mapping(address => uint256)",
        "numberOfBytes": "32",
        "value": "t_uint256"
      },
      "t_mapping(t_uint256,t_address)": {
        "encoding": "mapping",
        "key": "t_uint256",
        "label": "mapping(uint256 => address)",
        "numberOfBytes": "32",
        "value": "t_address"
      },
      "t_mapping(t_uint256,t_string_storage)": {
        "encoding": "mapping",
        "key": "t_uint256",
        "label": "mapping(uint256 => string)",
        "numberOfBytes": "32",
        "value": "t_string_storage"
      },
      "t_string_storage": {
        "encoding": "bytes",
        "label": "string",
        "numberOfBytes": "32"
      },
      "t_uint256": {
        "encoding": "inplace",
        "label": "uint256",
        "numberOfBytes": "32"
      }
    }
  }
}